{
  "_format": "hh-sol-artifact-1",
  "contractName": "PredictionMarket",
  "sourceName": "contracts/PredictionMarket.sol",
  "abi": [
    {
      "inputs": [],
      "stateMutability": "nonpayable",
      "type": "constructor"
    },
    {
      "anonymous": false,
      "inputs": [
        {
          "indexed": false,
          "internalType": "uint256",
          "name": "marketId",
          "type": "uint256"
        },
        {
          "indexed": false,
          "internalType": "address",
          "name": "user",
          "type": "address"
        },
        {
          "indexed": false,
          "internalType": "bool",
          "name": "isYes",
          "type": "bool"
        },
        {
          "indexed": false,
          "internalType": "uint256",
          "name": "amount",
          "type": "uint256"
        }
      ],
      "name": "BetPlaced",
      "type": "event"
    },
    {
      "anonymous": false,
      "inputs": [
        {
          "indexed": false,
          "internalType": "address",
          "name": "user",
          "type": "address"
        },
        {
          "indexed": false,
          "internalType": "uint256",
          "name": "amount",
          "type": "uint256"
        }
      ],
      "name": "DailyClaimed",
      "type": "event"
    },
    {
      "anonymous": false,
      "inputs": [
        {
          "indexed": false,
          "internalType": "uint256",
          "name": "id",
          "type": "uint256"
        },
        {
          "indexed": false,
          "internalType": "string",
          "name": "question",
          "type": "string"
        },
        {
          "indexed": false,
          "internalType": "uint256",
          "name": "resolutionTime",
          "type": "uint256"
        }
      ],
      "name": "MarketCreated",
      "type": "event"
    },
    {
      "anonymous": false,
      "inputs": [
        {
          "indexed": false,
          "internalType": "uint256",
          "name": "id",
          "type": "uint256"
        },
        {
          "indexed": false,
          "internalType": "bool",
          "name": "resolvedYes",
          "type": "bool"
        }
      ],
      "name": "MarketResolved",
      "type": "event"
    },
    {
      "anonymous": false,
      "inputs": [
        {
          "indexed": false,
          "internalType": "uint256",
          "name": "marketId",
          "type": "uint256"
        },
        {
          "indexed": false,
          "internalType": "address",
          "name": "user",
          "type": "address"
        },
        {
          "indexed": false,
          "internalType": "uint256",
          "name": "amount",
          "type": "uint256"
        }
      ],
      "name": "RewardClaimed",
      "type": "event"
    },
    {
      "inputs": [
        {
          "internalType": "uint256",
          "name": "_marketId",
          "type": "uint256"
        },
        {
          "internalType": "uint256",
          "name": "_amount",
          "type": "uint256"
        }
      ],
      "name": "betNo",
      "outputs": [],
      "stateMutability": "nonpayable",
      "type": "function"
    },
    {
      "inputs": [
        {
          "internalType": "uint256",
          "name": "_marketId",
          "type": "uint256"
        },
        {
          "internalType": "uint256",
          "name": "_amount",
          "type": "uint256"
        }
      ],
      "name": "betYes",
      "outputs": [],
      "stateMutability": "nonpayable",
      "type": "function"
    },
    {
      "inputs": [
        {
          "internalType": "uint256",
          "name": "_marketId",
          "type": "uint256"
        }
      ],
      "name": "claimReward",
      "outputs": [],
      "stateMutability": "nonpayable",
      "type": "function"
    },
    {
      "inputs": [
        {
          "internalType": "string",
          "name": "_question",
          "type": "string"
        },
        {
          "internalType": "uint256",
          "name": "_duration",
          "type": "uint256"
        }
      ],
      "name": "createMarket",
      "outputs": [],
      "stateMutability": "nonpayable",
      "type": "function"
    },
    {
      "inputs": [],
      "name": "dailyClaim",
      "outputs": [],
      "stateMutability": "nonpayable",
      "type": "function"
    },
    {
      "inputs": [
        {
          "internalType": "address",
          "name": "_user",
          "type": "address"
        }
      ],
      "name": "getUserPoints",
      "outputs": [
        {
          "internalType": "uint256",
          "name": "",
          "type": "uint256"
        }
      ],
      "stateMutability": "view",
      "type": "function"
    },
    {
      "inputs": [
        {
          "internalType": "address",
          "name": "",
          "type": "address"
        }
      ],
      "name": "lastClaimTime",
      "outputs": [
        {
          "internalType": "uint256",
          "name": "",
          "type": "uint256"
        }
      ],
      "stateMutability": "view",
      "type": "function"
    },
    {
      "inputs": [
        {
          "internalType": "uint256",
          "name": "",
          "type": "uint256"
        }
      ],
      "name": "markets",
      "outputs": [
        {
          "internalType": "uint256",
          "name": "id",
          "type": "uint256"
        },
        {
          "internalType": "string",
          "name": "question",
          "type": "string"
        },
        {
          "internalType": "uint256",
          "name": "yesPool",
          "type": "uint256"
        },
        {
          "internalType": "uint256",
          "name": "noPool",
          "type": "uint256"
        },
        {
          "internalType": "uint256",
          "name": "resolutionTime",
          "type": "uint256"
        },
        {
          "internalType": "bool",
          "name": "isResolved",
          "type": "bool"
        },
        {
          "internalType": "bool",
          "name": "resolvedYes",
          "type": "bool"
        }
      ],
      "stateMutability": "view",
      "type": "function"
    },
    {
      "inputs": [],
      "name": "nextMarketId",
      "outputs": [
        {
          "internalType": "uint256",
          "name": "",
          "type": "uint256"
        }
      ],
      "stateMutability": "view",
      "type": "function"
    },
    {
      "inputs": [
        {
          "internalType": "uint256",
          "name": "",
          "type": "uint256"
        },
        {
          "internalType": "address",
          "name": "",
          "type": "address"
        }
      ],
      "name": "noBets",
      "outputs": [
        {
          "internalType": "uint256",
          "name": "",
          "type": "uint256"
        }
      ],
      "stateMutability": "view",
      "type": "function"
    },
    {
      "inputs": [],
      "name": "owner",
      "outputs": [
        {
          "internalType": "address",
          "name": "",
          "type": "address"
        }
      ],
      "stateMutability": "view",
      "type": "function"
    },
    {
      "inputs": [
        {
          "internalType": "uint256",
          "name": "_marketId",
          "type": "uint256"
        },
        {
          "internalType": "bool",
          "name": "_resolvedYes",
          "type": "bool"
        }
      ],
      "name": "resolveMarket",
      "outputs": [],
      "stateMutability": "nonpayable",
      "type": "function"
    },
    {
      "inputs": [
        {
          "internalType": "address",
          "name": "",
          "type": "address"
        }
      ],
      "name": "userPoints",
      "outputs": [
        {
          "internalType": "uint256",
          "name": "",
          "type": "uint256"
        }
      ],
      "stateMutability": "view",
      "type": "function"
    },
    {
      "inputs": [
        {
          "internalType": "uint256",
          "name": "",
          "type": "uint256"
        },
        {
          "internalType": "address",
          "name": "",
          "type": "address"
        }
      ],
      "name": "yesBets",
      "outputs": [
        {
          "internalType": "uint256",
          "name": "",
          "type": "uint256"
        }
      ],
      "stateMutability": "view",
      "type": "function"
    }
  ],
  "bytecode": "0x608060405234801561001057600080fd5b5033600660006101000a81548173ffffffffffffffffffffffffffffffffffffffff021916908373ffffffffffffffffffffffffffffffffffffffff160217905550612172806100616000396000f3fe608060405234801561001057600080fd5b50600436106100ea5760003560e01c8063883c84c11161008c578063aeefe31f11610066578063aeefe31f14610221578063b1283e7714610251578063b77cf9c614610287578063f50ddbc7146102b7576100ea565b8063883c84c1146101cb5780638da5cb5b146101e7578063ae169a5014610205576100ea565b8063354c6199116100c8578063354c619914610157578063406ef2ef1461018757806349567fd0146101a557806357bde446146101af576100ea565b8063155e4b82146100ef578063174a5d321461011f57806322a18d421461013b575b600080fd5b61010960048036038101906101049190611358565b6102e7565b60405161011691906113a7565b60405180910390f35b610139600480360381019061013491906113c2565b61030c565b005b610155600480360381019061015091906113c2565b61059a565b005b610171600480360381019061016c9190611358565b610828565b60405161017e91906113a7565b60405180910390f35b61018f61084d565b60405161019c91906113a7565b60405180910390f35b6101ad610853565b005b6101c960048036038101906101c4919061143a565b6109b9565b005b6101e560048036038101906101e091906115c0565b610bb4565b005b6101ef610d84565b6040516101fc919061162b565b60405180910390f35b61021f600480360381019061021a9190611646565b610daa565b005b61023b60048036038101906102369190611673565b611154565b60405161024891906113a7565b60405180910390f35b61026b60048036038101906102669190611646565b61119c565b60405161027e979695949392919061172e565b60405180910390f35b6102a1600480360381019061029c9190611673565b611280565b6040516102ae91906113a7565b60405180910390f35b6102d160048036038101906102cc9190611673565b611298565b6040516102de91906113a7565b60405180910390f35b6005602052816000526040600020602052806000526040600020600091509150505481565b6002548210610350576040517f08c379a0000000000000000000000000000000000000000000000000000000008152600401610347906117f0565b60405180910390fd5b60006003600084815260200190815260200160002090508060050160009054906101000a900460ff16156103b9576040517f08c379a00000000000000000000000000000000000000000000000000000000081526004016103b09061185c565b60405180910390fd5b806004015442106103ff576040517f08c379a00000000000000000000000000000000000000000000000000000000081526004016103f6906118c8565b60405180910390fd5b816000803373ffffffffffffffffffffffffffffffffffffffff1673ffffffffffffffffffffffffffffffffffffffff168152602001908152602001600020541015610480576040517f08c379a000000000000000000000000000000000000000000000000000000000815260040161047790611934565b60405180910390fd5b816000803373ffffffffffffffffffffffffffffffffffffffff1673ffffffffffffffffffffffffffffffffffffffff16815260200190815260200160002060008282546104ce9190611983565b92505081905550818160020160008282546104e991906119b7565b92505081905550816004600085815260200190815260200160002060003373ffffffffffffffffffffffffffffffffffffffff1673ffffffffffffffffffffffffffffffffffffffff168152602001908152602001600020600082825461055091906119b7565b925050819055507f4af71b021e799c62c158bd54636ca8da2fa26115a21a2dc6efe486ec104fd15f833360018560405161058d94939291906119eb565b60405180910390a1505050565b60025482106105de576040517f08c379a00000000000000000000000000000000000000000000000000000000081526004016105d5906117f0565b60405180910390fd5b60006003600084815260200190815260200160002090508060050160009054906101000a900460ff1615610647576040517f08c379a000000000000000000000000000000000000000000000000000000000815260040161063e9061185c565b60405180910390fd5b8060040154421061068d576040517f08c379a0000000000000000000000000000000000000000000000000000000008152600401610684906118c8565b60405180910390fd5b816000803373ffffffffffffffffffffffffffffffffffffffff1673ffffffffffffffffffffffffffffffffffffffff16815260200190815260200160002054101561070e576040517f08c379a000000000000000000000000000000000000000000000000000000000815260040161070590611934565b60405180910390fd5b816000803373ffffffffffffffffffffffffffffffffffffffff1673ffffffffffffffffffffffffffffffffffffffff168152602001908152602001600020600082825461075c9190611983565b925050819055508181600301600082825461077791906119b7565b92505081905550816005600085815260200190815260200160002060003373ffffffffffffffffffffffffffffffffffffffff1673ffffffffffffffffffffffffffffffffffffffff16815260200190815260200160002060008282546107de91906119b7565b925050819055507f4af71b021e799c62c158bd54636ca8da2fa26115a21a2dc6efe486ec104fd15f833360008560405161081b94939291906119eb565b60405180910390a1505050565b6004602052816000526040600020602052806000526040600020600091509150505481565b60025481565b62015180600160003373ffffffffffffffffffffffffffffffffffffffff1673ffffffffffffffffffffffffffffffffffffffff168152602001908152602001600020546108a191906119b7565b4210156108e3576040517f08c379a00000000000000000000000000000000000000000000000000000000081526004016108da90611aa2565b60405180910390fd5b600a6000803373ffffffffffffffffffffffffffffffffffffffff1673ffffffffffffffffffffffffffffffffffffffff168152602001908152602001600020600082825461093291906119b7565b9250508190555042600160003373ffffffffffffffffffffffffffffffffffffffff1673ffffffffffffffffffffffffffffffffffffffff168152602001908152602001600020819055507fb924ab64c28bc1c27fc5a56df34d576dfebbf347ea99c0e51abc4a46f458a77c33600a6040516109af929190611b07565b60405180910390a1565b600660009054906101000a900473ffffffffffffffffffffffffffffffffffffffff1673ffffffffffffffffffffffffffffffffffffffff163373ffffffffffffffffffffffffffffffffffffffff1614610a49576040517f08c379a0000000000000000000000000000000000000000000000000000000008152600401610a4090611b7c565b60405180910390fd5b6002548210610a8d576040517f08c379a0000000000000000000000000000000000000000000000000000000008152600401610a84906117f0565b60405180910390fd5b60006003600084815260200190815260200160002090508060050160009054906101000a900460ff1615610af6576040517f08c379a0000000000000000000000000000000000000000000000000000000008152600401610aed9061185c565b60405180910390fd5b8060040154421015610b3d576040517f08c379a0000000000000000000000000000000000000000000000000000000008152600401610b3490611be8565b60405180910390fd5b60018160050160006101000a81548160ff021916908315150217905550818160050160016101000a81548160ff0219169083151502179055507f4927fe38919783250023d27e65a3e56b6b5c3e49364e51674a41ef08d62460d98383604051610ba7929190611c08565b60405180910390a1505050565b600660009054906101000a900473ffffffffffffffffffffffffffffffffffffffff1673ffffffffffffffffffffffffffffffffffffffff163373ffffffffffffffffffffffffffffffffffffffff1614610c44576040517f08c379a0000000000000000000000000000000000000000000000000000000008152600401610c3b90611b7c565b60405180910390fd5b600060026000815480929190610c5990611c31565b9190505590506040518060e0016040528082815260200184815260200160008152602001600081526020018342610c9091906119b7565b81526020016000151581526020016000151581525060036000838152602001908152602001600020600082015181600001556020820151816001019081610cd79190611e7b565b5060408201518160020155606082015181600301556080820151816004015560a08201518160050160006101000a81548160ff02191690831515021790555060c08201518160050160016101000a81548160ff0219169083151502179055509050507f2d1e9ad45dbe8e898e0374deebf2a661b2ae7c1855d2a29507d584c35d287c7581848442610d6891906119b7565b604051610d7793929190611f4d565b60405180910390a1505050565b600660009054906101000a900473ffffffffffffffffffffffffffffffffffffffff1681565b6002548110610dee576040517f08c379a0000000000000000000000000000000000000000000000000000000008152600401610de5906117f0565b60405180910390fd5b60006003600083815260200190815260200160002090508060050160009054906101000a900460ff16610e56576040517f08c379a0000000000000000000000000000000000000000000000000000000008152600401610e4d90611fd7565b60405180910390fd5b60008160050160019054906101000a900460ff1615610f995760006004600085815260200190815260200160002060003373ffffffffffffffffffffffffffffffffffffffff1673ffffffffffffffffffffffffffffffffffffffff16815260200190815260200160002054905060008111610f07576040517f08c379a0000000000000000000000000000000000000000000000000000000008152600401610efe90612043565b60405180910390fd5b60006004600086815260200190815260200160002060003373ffffffffffffffffffffffffffffffffffffffff1673ffffffffffffffffffffffffffffffffffffffff16815260200190815260200160002081905550600083600301548460020154610f7391906119b7565b905083600201548183610f869190612063565b610f9091906120d4565b925050506110bf565b60006005600085815260200190815260200160002060003373ffffffffffffffffffffffffffffffffffffffff1673ffffffffffffffffffffffffffffffffffffffff16815260200190815260200160002054905060008111611031576040517f08c379a000000000000000000000000000000000000000000000000000000000815260040161102890612043565b60405180910390fd5b60006005600086815260200190815260200160002060003373ffffffffffffffffffffffffffffffffffffffff1673ffffffffffffffffffffffffffffffffffffffff1681526020019081526020016000208190555060008360030154846002015461109d91906119b7565b9050836003015481836110b09190612063565b6110ba91906120d4565b925050505b806000803373ffffffffffffffffffffffffffffffffffffffff1673ffffffffffffffffffffffffffffffffffffffff168152602001908152602001600020600082825461110d91906119b7565b925050819055507f24b5efa61dd1cfc659205a97fb8ed868f3cb8c81922bab2b96423e5de1de2cb783338360405161114793929190612105565b60405180910390a1505050565b60008060008373ffffffffffffffffffffffffffffffffffffffff1673ffffffffffffffffffffffffffffffffffffffff168152602001908152602001600020549050919050565b60036020528060005260406000206000915090508060000154908060010180546111c590611ca8565b80601f01602080910402602001604051908101604052809291908181526020018280546111f190611ca8565b801561123e5780601f106112135761010080835404028352916020019161123e565b820191906000526020600020905b81548152906001019060200180831161122157829003601f168201915b5050505050908060020154908060030154908060040154908060050160009054906101000a900460ff16908060050160019054906101000a900460ff16905087565b60016020528060005260406000206000915090505481565b60006020528060005260406000206000915090505481565b6000604051905090565b600080fd5b600080fd5b6000819050919050565b6112d7816112c4565b81146112e257600080fd5b50565b6000813590506112f4816112ce565b92915050565b600073ffffffffffffffffffffffffffffffffffffffff82169050919050565b6000611325826112fa565b9050919050565b6113358161131a565b811461134057600080fd5b50565b6000813590506113528161132c565b92915050565b6000806040838503121561136f5761136e6112ba565b5b600061137d858286016112e5565b925050602061138e85828601611343565b9150509250929050565b6113a1816112c4565b82525050565b60006020820190506113bc6000830184611398565b92915050565b600080604083850312156113d9576113d86112ba565b5b60006113e7858286016112e5565b92505060206113f8858286016112e5565b9150509250929050565b60008115159050919050565b61141781611402565b811461142257600080fd5b50565b6000813590506114348161140e565b92915050565b60008060408385031215611451576114506112ba565b5b600061145f858286016112e5565b925050602061147085828601611425565b9150509250929050565b600080fd5b600080fd5b6000601f19601f8301169050919050565b7f4e487b7100000000000000000000000000000000000000000000000000000000600052604160045260246000fd5b6114cd82611484565b810181811067ffffffffffffffff821117156114ec576114eb611495565b5b80604052505050565b60006114ff6112b0565b905061150b82826114c4565b919050565b600067ffffffffffffffff82111561152b5761152a611495565b5b61153482611484565b9050602081019050919050565b82818337600083830152505050565b600061156361155e84611510565b6114f5565b90508281526020810184848401111561157f5761157e61147f565b5b61158a848285611541565b509392505050565b600082601f8301126115a7576115a661147a565b5b81356115b7848260208601611550565b91505092915050565b600080604083850312156115d7576115d66112ba565b5b600083013567ffffffffffffffff8111156115f5576115f46112bf565b5b61160185828601611592565b9250506020611612858286016112e5565b9150509250929050565b6116258161131a565b82525050565b6000602082019050611640600083018461161c565b92915050565b60006020828403121561165c5761165b6112ba565b5b600061166a848285016112e5565b91505092915050565b600060208284031215611689576116886112ba565b5b600061169784828501611343565b91505092915050565b600081519050919050565b600082825260208201905092915050565b60005b838110156116da5780820151818401526020810190506116bf565b60008484015250505050565b60006116f1826116a0565b6116fb81856116ab565b935061170b8185602086016116bc565b61171481611484565b840191505092915050565b61172881611402565b82525050565b600060e082019050611743600083018a611398565b818103602083015261175581896116e6565b90506117646040830188611398565b6117716060830187611398565b61177e6080830186611398565b61178b60a083018561171f565b61179860c083018461171f565b98975050505050505050565b7f4d61726b657420646f6573206e6f742065786973740000000000000000000000600082015250565b60006117da6015836116ab565b91506117e5826117a4565b602082019050919050565b60006020820190508181036000830152611809816117cd565b9050919050565b7f4d61726b657420616c7265616479207265736f6c766564000000000000000000600082015250565b60006118466017836116ab565b915061185182611810565b602082019050919050565b6000602082019050818103600083015261187581611839565b9050919050565b7f4d61726b657420766f74696e672068617320656e646564000000000000000000600082015250565b60006118b26017836116ab565b91506118bd8261187c565b602082019050919050565b600060208201905081810360008301526118e1816118a5565b9050919050565b7f496e73756666696369656e7420706f696e747300000000000000000000000000600082015250565b600061191e6013836116ab565b9150611929826118e8565b602082019050919050565b6000602082019050818103600083015261194d81611911565b9050919050565b7f4e487b7100000000000000000000000000000000000000000000000000000000600052601160045260246000fd5b600061198e826112c4565b9150611999836112c4565b92508282039050818111156119b1576119b0611954565b5b92915050565b60006119c2826112c4565b91506119cd836112c4565b92508282019050808211156119e5576119e4611954565b5b92915050565b6000608082019050611a006000830187611398565b611a0d602083018661161c565b611a1a604083018561171f565b611a276060830184611398565b95945050505050565b7f43616e206f6e6c7920636c61696d206f6e636520657665727920323420686f7560008201527f7273000000000000000000000000000000000000000000000000000000000000602082015250565b6000611a8c6022836116ab565b9150611a9782611a30565b604082019050919050565b60006020820190508181036000830152611abb81611a7f565b9050919050565b6000819050919050565b6000819050919050565b6000611af1611aec611ae784611ac2565b611acc565b6112c4565b9050919050565b611b0181611ad6565b82525050565b6000604082019050611b1c600083018561161c565b611b296020830184611af8565b9392505050565b7f4f6e6c79206f776e65722063616e2063616c6c20746869730000000000000000600082015250565b6000611b666018836116ab565b9150611b7182611b30565b602082019050919050565b60006020820190508181036000830152611b9581611b59565b9050919050565b7f4d61726b6574206e6f742079657420656e646564000000000000000000000000600082015250565b6000611bd26014836116ab565b9150611bdd82611b9c565b602082019050919050565b60006020820190508181036000830152611c0181611bc5565b9050919050565b6000604082019050611c1d6000830185611398565b611c2a602083018461171f565b9392505050565b6000611c3c826112c4565b91507fffffffffffffffffffffffffffffffffffffffffffffffffffffffffffffffff8203611c6e57611c6d611954565b5b600182019050919050565b7f4e487b7100000000000000000000000000000000000000000000000000000000600052602260045260246000fd5b60006002820490506001821680611cc057607f821691505b602082108103611cd357611cd2611c79565b5b50919050565b60008190508160005260206000209050919050565b60006020601f8301049050919050565b600082821b905092915050565b600060088302611d3b7fffffffffffffffffffffffffffffffffffffffffffffffffffffffffffffffff82611cfe565b611d458683611cfe565b95508019841693508086168417925050509392505050565b6000611d78611d73611d6e846112c4565b611acc565b6112c4565b9050919050565b6000819050919050565b611d9283611d5d565b611da6611d9e82611d7f565b848454611d0b565b825550505050565b600090565b611dbb611dae565b611dc6818484611d89565b505050565b5b81811015611dea57611ddf600082611db3565b600181019050611dcc565b5050565b601f821115611e2f57611e0081611cd9565b611e0984611cee565b81016020851015611e18578190505b611e2c611e2485611cee565b830182611dcb565b50505b505050565b600082821c905092915050565b6000611e5260001984600802611e34565b1980831691505092915050565b6000611e6b8383611e41565b9150826002028217905092915050565b611e84826116a0565b67ffffffffffffffff811115611e9d57611e9c611495565b5b611ea78254611ca8565b611eb2828285611dee565b600060209050601f831160018114611ee55760008415611ed3578287015190505b611edd8582611e5f565b865550611f45565b601f198416611ef386611cd9565b60005b82811015611f1b57848901518255600182019150602085019450602081019050611ef6565b86831015611f385784890151611f34601f891682611e41565b8355505b6001600288020188555050505b505050505050565b6000606082019050611f626000830186611398565b8181036020830152611f7481856116e6565b9050611f836040830184611398565b949350505050565b7f4d61726b6574206e6f7420796574207265736f6c766564000000000000000000600082015250565b6000611fc16017836116ab565b9150611fcc82611f8b565b602082019050919050565b60006020820190508181036000830152611ff081611fb4565b9050919050565b7f4e6f2077696e6e696e6720626574000000000000000000000000000000000000600082015250565b600061202d600e836116ab565b915061203882611ff7565b602082019050919050565b6000602082019050818103600083015261205c81612020565b9050919050565b600061206e826112c4565b9150612079836112c4565b9250828202612087816112c4565b9150828204841483151761209e5761209d611954565b5b5092915050565b7f4e487b7100000000000000000000000000000000000000000000000000000000600052601260045260246000fd5b60006120df826112c4565b91506120ea836112c4565b9250826120fa576120f96120a5565b5b828204905092915050565b600060608201905061211a6000830186611398565b612127602083018561161c565b6121346040830184611398565b94935050505056fea26469706673582212206bf660b39a632619fbe21f37d88a998270c0b1ce852d25ea3942758733bd1ce364736f6c63430008180033",
  "linkReferences": {},
  "deployedLinkReferences": {}
}